{
  "_format": "hh-sol-artifact-1",
  "contractName": "TenantDemoAsset",
  "sourceName": "contracts/tenant-demo/TenantDemoAsset.sol",
  "abi": [
    {
      "inputs": [],
      "stateMutability": "nonpayable",
      "type": "constructor"
    },
    {
      "anonymous": false,
      "inputs": [
        {
          "indexed": true,
          "internalType": "address",
          "name": "owner",
          "type": "address"
        },
        {
          "indexed": true,
          "internalType": "address",
          "name": "approved",
          "type": "address"
        },
        {
          "indexed": true,
          "internalType": "uint256",
          "name": "tokenId",
          "type": "uint256"
        }
      ],
      "name": "Approval",
      "type": "event"
    },
    {
      "anonymous": false,
      "inputs": [
        {
          "indexed": true,
          "internalType": "address",
          "name": "owner",
          "type": "address"
        },
        {
          "indexed": true,
          "internalType": "address",
          "name": "operator",
          "type": "address"
        },
        {
          "indexed": false,
          "internalType": "bool",
          "name": "approved",
          "type": "bool"
        }
      ],
      "name": "ApprovalForAll",
      "type": "event"
    },
    {
      "anonymous": false,
      "inputs": [
        {
          "indexed": false,
          "internalType": "uint256",
          "name": "_fromTokenId",
          "type": "uint256"
        },
        {
          "indexed": false,
          "internalType": "uint256",
          "name": "_toTokenId",
          "type": "uint256"
        }
      ],
      "name": "BatchMetadataUpdate",
      "type": "event"
    },
    {
      "anonymous": false,
      "inputs": [
        {
          "indexed": false,
          "internalType": "uint256",
          "name": "_tokenId",
          "type": "uint256"
        }
      ],
      "name": "MetadataUpdate",
      "type": "event"
    },
    {
      "anonymous": false,
      "inputs": [
        {
          "indexed": true,
          "internalType": "address",
          "name": "previousOwner",
          "type": "address"
        },
        {
          "indexed": true,
          "internalType": "address",
          "name": "newOwner",
          "type": "address"
        }
      ],
      "name": "OwnershipTransferred",
      "type": "event"
    },
    {
      "anonymous": false,
      "inputs": [
        {
          "indexed": true,
          "internalType": "address",
          "name": "from",
          "type": "address"
        },
        {
          "indexed": true,
          "internalType": "address",
          "name": "to",
          "type": "address"
        },
        {
          "indexed": true,
          "internalType": "uint256",
          "name": "tokenId",
          "type": "uint256"
        }
      ],
      "name": "Transfer",
      "type": "event"
    },
    {
      "inputs": [
        {
          "internalType": "address",
          "name": "to",
          "type": "address"
        },
        {
          "internalType": "uint256",
          "name": "tokenId",
          "type": "uint256"
        }
      ],
      "name": "approve",
      "outputs": [],
      "stateMutability": "nonpayable",
      "type": "function"
    },
    {
      "inputs": [
        {
          "internalType": "address",
          "name": "owner",
          "type": "address"
        }
      ],
      "name": "balanceOf",
      "outputs": [
        {
          "internalType": "uint256",
          "name": "",
          "type": "uint256"
        }
      ],
      "stateMutability": "view",
      "type": "function"
    },
    {
      "inputs": [
        {
          "internalType": "uint256",
          "name": "tokenId",
          "type": "uint256"
        }
      ],
      "name": "getApproved",
      "outputs": [
        {
          "internalType": "address",
          "name": "",
          "type": "address"
        }
      ],
      "stateMutability": "view",
      "type": "function"
    },
    {
      "inputs": [
        {
          "internalType": "address",
          "name": "owner",
          "type": "address"
        },
        {
          "internalType": "address",
          "name": "operator",
          "type": "address"
        }
      ],
      "name": "isApprovedForAll",
      "outputs": [
        {
          "internalType": "bool",
          "name": "",
          "type": "bool"
        }
      ],
      "stateMutability": "view",
      "type": "function"
    },
    {
      "inputs": [
        {
          "internalType": "address",
          "name": "to",
          "type": "address"
        },
        {
          "internalType": "string",
          "name": "uri",
          "type": "string"
        }
      ],
      "name": "mintNft",
      "outputs": [
        {
          "internalType": "uint256",
          "name": "",
          "type": "uint256"
        }
      ],
      "stateMutability": "nonpayable",
      "type": "function"
    },
    {
      "inputs": [],
      "name": "name",
      "outputs": [
        {
          "internalType": "string",
          "name": "",
          "type": "string"
        }
      ],
      "stateMutability": "view",
      "type": "function"
    },
    {
      "inputs": [],
      "name": "owner",
      "outputs": [
        {
          "internalType": "address",
          "name": "",
          "type": "address"
        }
      ],
      "stateMutability": "view",
      "type": "function"
    },
    {
      "inputs": [
        {
          "internalType": "uint256",
          "name": "tokenId",
          "type": "uint256"
        }
      ],
      "name": "ownerOf",
      "outputs": [
        {
          "internalType": "address",
          "name": "",
          "type": "address"
        }
      ],
      "stateMutability": "view",
      "type": "function"
    },
    {
      "inputs": [],
      "name": "renounceOwnership",
      "outputs": [],
      "stateMutability": "nonpayable",
      "type": "function"
    },
    {
      "inputs": [
        {
          "internalType": "address",
          "name": "from",
          "type": "address"
        },
        {
          "internalType": "address",
          "name": "to",
          "type": "address"
        },
        {
          "internalType": "uint256",
          "name": "tokenId",
          "type": "uint256"
        }
      ],
      "name": "safeTransferFrom",
      "outputs": [],
      "stateMutability": "nonpayable",
      "type": "function"
    },
    {
      "inputs": [
        {
          "internalType": "address",
          "name": "from",
          "type": "address"
        },
        {
          "internalType": "address",
          "name": "to",
          "type": "address"
        },
        {
          "internalType": "uint256",
          "name": "tokenId",
          "type": "uint256"
        },
        {
          "internalType": "bytes",
          "name": "data",
          "type": "bytes"
        }
      ],
      "name": "safeTransferFrom",
      "outputs": [],
      "stateMutability": "nonpayable",
      "type": "function"
    },
    {
      "inputs": [
        {
          "internalType": "address",
          "name": "operator",
          "type": "address"
        },
        {
          "internalType": "bool",
          "name": "approved",
          "type": "bool"
        }
      ],
      "name": "setApprovalForAll",
      "outputs": [],
      "stateMutability": "nonpayable",
      "type": "function"
    },
    {
      "inputs": [
        {
          "internalType": "bytes4",
          "name": "interfaceId",
          "type": "bytes4"
        }
      ],
      "name": "supportsInterface",
      "outputs": [
        {
          "internalType": "bool",
          "name": "",
          "type": "bool"
        }
      ],
      "stateMutability": "view",
      "type": "function"
    },
    {
      "inputs": [],
      "name": "symbol",
      "outputs": [
        {
          "internalType": "string",
          "name": "",
          "type": "string"
        }
      ],
      "stateMutability": "view",
      "type": "function"
    },
    {
      "inputs": [
        {
          "internalType": "uint256",
          "name": "index",
          "type": "uint256"
        }
      ],
      "name": "tokenByIndex",
      "outputs": [
        {
          "internalType": "uint256",
          "name": "",
          "type": "uint256"
        }
      ],
      "stateMutability": "view",
      "type": "function"
    },
    {
      "inputs": [
        {
          "internalType": "address",
          "name": "owner",
          "type": "address"
        },
        {
          "internalType": "uint256",
          "name": "index",
          "type": "uint256"
        }
      ],
      "name": "tokenOfOwnerByIndex",
      "outputs": [
        {
          "internalType": "uint256",
          "name": "",
          "type": "uint256"
        }
      ],
      "stateMutability": "view",
      "type": "function"
    },
    {
      "inputs": [
        {
          "internalType": "uint256",
          "name": "tokenId",
          "type": "uint256"
        }
      ],
      "name": "tokenURI",
      "outputs": [
        {
          "internalType": "string",
          "name": "",
          "type": "string"
        }
      ],
      "stateMutability": "view",
      "type": "function"
    },
    {
      "inputs": [],
      "name": "totalSupply",
      "outputs": [
        {
          "internalType": "uint256",
          "name": "",
          "type": "uint256"
        }
      ],
      "stateMutability": "view",
      "type": "function"
    },
    {
      "inputs": [
        {
          "internalType": "address",
          "name": "from",
          "type": "address"
        },
        {
          "internalType": "address",
          "name": "to",
          "type": "address"
        },
        {
          "internalType": "uint256",
          "name": "tokenId",
          "type": "uint256"
        }
      ],
      "name": "transferFrom",
      "outputs": [],
      "stateMutability": "nonpayable",
      "type": "function"
    },
    {
      "inputs": [
        {
          "internalType": "address",
          "name": "newOwner",
          "type": "address"
        }
      ],
      "name": "transferOwnership",
      "outputs": [],
      "stateMutability": "nonpayable",
      "type": "function"
    }
  ],
  "bytecode": "0x60806040523480156200001157600080fd5b506040518060400160405280600f81526020017f54656e616e7444656d6f417373657400000000000000000000000000000000008152506040518060400160405280600381526020017f5444410000000000000000000000000000000000000000000000000000000000815250816000908051906020019062000096929190620001a6565b508060019080519060200190620000af929190620001a6565b505050620000d2620000c6620000d860201b60201c565b620000e060201b60201c565b620002bb565b600033905090565b6000600b60009054906101000a900473ffffffffffffffffffffffffffffffffffffffff16905081600b60006101000a81548173ffffffffffffffffffffffffffffffffffffffff021916908373ffffffffffffffffffffffffffffffffffffffff1602179055508173ffffffffffffffffffffffffffffffffffffffff168173ffffffffffffffffffffffffffffffffffffffff167f8be0079c531659141344cd1fd0a4f28419497f9722a3daafe3b4186f6b6457e060405160405180910390a35050565b828054620001b49062000285565b90600052602060002090601f016020900481019282620001d8576000855562000224565b82601f10620001f357805160ff191683800117855562000224565b8280016001018555821562000224579182015b828111156200022357825182559160200191906001019062000206565b5b50905062000233919062000237565b5090565b5b808211156200025257600081600090555060010162000238565b5090565b7f4e487b7100000000000000000000000000000000000000000000000000000000600052602260045260246000fd5b600060028204905060018216806200029e57607f821691505b60208210811415620002b557620002b462000256565b5b50919050565b61366780620002cb6000396000f3fe608060405234801561001057600080fd5b506004361061012c5760003560e01c80636352211e116100ad578063a22cb46511610071578063a22cb46514610357578063b88d4fde14610373578063c87b56dd1461038f578063e985e9c5146103bf578063f2fde38b146103ef5761012c565b80636352211e146102b157806370a08231146102e1578063715018a6146103115780638da5cb5b1461031b57806395d89b41146103395761012c565b806318160ddd116100f457806318160ddd146101fb57806323b872dd146102195780632f745c591461023557806342842e0e146102655780634f6ccce7146102815761012c565b806301ffc9a71461013157806306fdde0314610161578063081812fc1461017f578063095ea7b3146101af57806311f87b19146101cb575b600080fd5b61014b60048036038101906101469190612455565b61040b565b604051610158919061249d565b60405180910390f35b61016961041d565b6040516101769190612551565b60405180910390f35b610199600480360381019061019491906125a9565b6104af565b6040516101a69190612617565b60405180910390f35b6101c960048036038101906101c4919061265e565b6104f5565b005b6101e560048036038101906101e091906127d3565b61060d565b6040516101f2919061283e565b60405180910390f35b610203610644565b604051610210919061283e565b60405180910390f35b610233600480360381019061022e9190612859565b610651565b005b61024f600480360381019061024a919061265e565b6106b1565b60405161025c919061283e565b60405180910390f35b61027f600480360381019061027a9190612859565b610756565b005b61029b600480360381019061029691906125a9565b610776565b6040516102a8919061283e565b60405180910390f35b6102cb60048036038101906102c691906125a9565b6107e7565b6040516102d89190612617565b60405180910390f35b6102fb60048036038101906102f691906128ac565b61086e565b604051610308919061283e565b60405180910390f35b610319610926565b005b61032361093a565b6040516103309190612617565b60405180910390f35b610341610964565b60405161034e9190612551565b60405180910390f35b610371600480360381019061036c9190612905565b6109f6565b005b61038d600480360381019061038891906129e6565b610a0c565b005b6103a960048036038101906103a491906125a9565b610a6e565b6040516103b69190612551565b60405180910390f35b6103d960048036038101906103d49190612a69565b610a80565b6040516103e6919061249d565b60405180910390f35b610409600480360381019061040491906128ac565b610b14565b005b600061041682610b98565b9050919050565b60606000805461042c90612ad8565b80601f016020809104026020016040519081016040528092919081815260200182805461045890612ad8565b80156104a55780601f1061047a576101008083540402835291602001916104a5565b820191906000526020600020905b81548152906001019060200180831161048857829003601f168201915b5050505050905090565b60006104ba82610bf9565b6004600083815260200190815260200160002060009054906101000a900473ffffffffffffffffffffffffffffffffffffffff169050919050565b6000610500826107e7565b90508073ffffffffffffffffffffffffffffffffffffffff168373ffffffffffffffffffffffffffffffffffffffff161415610571576040517f08c379a000000000000000000000000000000000000000000000000000000000815260040161056890612b7c565b60405180910390fd5b8073ffffffffffffffffffffffffffffffffffffffff16610590610c44565b73ffffffffffffffffffffffffffffffffffffffff1614806105bf57506105be816105b9610c44565b610a80565b5b6105fe576040517f08c379a00000000000000000000000000000000000000000000000000000000081526004016105f590612c0e565b60405180910390fd5b6106088383610c4c565b505050565b60008061061a600c610d05565b90506106268482610d13565b6106308184610d31565b61063a600c610ddc565b8091505092915050565b6000600880549050905090565b61066261065c610c44565b82610df2565b6106a1576040517f08c379a000000000000000000000000000000000000000000000000000000000815260040161069890612ca0565b60405180910390fd5b6106ac838383610e87565b505050565b60006106bc8361086e565b82106106fd576040517f08c379a00000000000000000000000000000000000000000000000000000000081526004016106f490612d32565b60405180910390fd5b600660008473ffffffffffffffffffffffffffffffffffffffff1673ffffffffffffffffffffffffffffffffffffffff168152602001908152602001600020600083815260200190815260200160002054905092915050565b61077183838360405180602001604052806000815250610a0c565b505050565b6000610780610644565b82106107c1576040517f08c379a00000000000000000000000000000000000000000000000000000000081526004016107b890612dc4565b60405180910390fd5b600882815481106107d5576107d4612de4565b5b90600052602060002001549050919050565b6000806107f383611181565b9050600073ffffffffffffffffffffffffffffffffffffffff168173ffffffffffffffffffffffffffffffffffffffff161415610865576040517f08c379a000000000000000000000000000000000000000000000000000000000815260040161085c90612e5f565b60405180910390fd5b80915050919050565b60008073ffffffffffffffffffffffffffffffffffffffff168273ffffffffffffffffffffffffffffffffffffffff1614156108df576040517f08c379a00000000000000000000000000000000000000000000000000000000081526004016108d690612ef1565b60405180910390fd5b600360008373ffffffffffffffffffffffffffffffffffffffff1673ffffffffffffffffffffffffffffffffffffffff168152602001908152602001600020549050919050565b61092e6111be565b610938600061123c565b565b6000600b60009054906101000a900473ffffffffffffffffffffffffffffffffffffffff16905090565b60606001805461097390612ad8565b80601f016020809104026020016040519081016040528092919081815260200182805461099f90612ad8565b80156109ec5780601f106109c1576101008083540402835291602001916109ec565b820191906000526020600020905b8154815290600101906020018083116109cf57829003601f168201915b5050505050905090565b610a08610a01610c44565b8383611302565b5050565b610a1d610a17610c44565b83610df2565b610a5c576040517f08c379a0000000000000000000000000000000000000000000000000000000008152600401610a5390612ca0565b60405180910390fd5b610a688484848461146f565b50505050565b6060610a79826114cb565b9050919050565b6000600560008473ffffffffffffffffffffffffffffffffffffffff1673ffffffffffffffffffffffffffffffffffffffff16815260200190815260200160002060008373ffffffffffffffffffffffffffffffffffffffff1673ffffffffffffffffffffffffffffffffffffffff16815260200190815260200160002060009054906101000a900460ff16905092915050565b610b1c6111be565b600073ffffffffffffffffffffffffffffffffffffffff168173ffffffffffffffffffffffffffffffffffffffff161415610b8c576040517f08c379a0000000000000000000000000000000000000000000000000000000008152600401610b8390612f83565b60405180910390fd5b610b958161123c565b50565b6000634906490660e01b7bffffffffffffffffffffffffffffffffffffffffffffffffffffffff1916827bffffffffffffffffffffffffffffffffffffffffffffffffffffffff19161480610bf25750610bf1826115de565b5b9050919050565b610c0281611658565b610c41576040517f08c379a0000000000000000000000000000000000000000000000000000000008152600401610c3890612e5f565b60405180910390fd5b50565b600033905090565b816004600083815260200190815260200160002060006101000a81548173ffffffffffffffffffffffffffffffffffffffff021916908373ffffffffffffffffffffffffffffffffffffffff160217905550808273ffffffffffffffffffffffffffffffffffffffff16610cbf836107e7565b73ffffffffffffffffffffffffffffffffffffffff167f8c5be1e5ebec7d5bd14f71427d1e84f3dd0314c0f7b2291e5b200ac8c7c3b92560405160405180910390a45050565b600081600001549050919050565b610d2d828260405180602001604052806000815250611699565b5050565b610d3a82611658565b610d79576040517f08c379a0000000000000000000000000000000000000000000000000000000008152600401610d7090613015565b60405180910390fd5b80600a60008481526020019081526020016000209080519060200190610da0929190612346565b507ff8e1a15aba9398e019f0b49df1a4fde98ee17ae345cb5f6b5e2c27f5033e8ce782604051610dd0919061283e565b60405180910390a15050565b6001816000016000828254019250508190555050565b600080610dfe836107e7565b90508073ffffffffffffffffffffffffffffffffffffffff168473ffffffffffffffffffffffffffffffffffffffff161480610e405750610e3f8185610a80565b5b80610e7e57508373ffffffffffffffffffffffffffffffffffffffff16610e66846104af565b73ffffffffffffffffffffffffffffffffffffffff16145b91505092915050565b8273ffffffffffffffffffffffffffffffffffffffff16610ea7826107e7565b73ffffffffffffffffffffffffffffffffffffffff1614610efd576040517f08c379a0000000000000000000000000000000000000000000000000000000008152600401610ef4906130a7565b60405180910390fd5b600073ffffffffffffffffffffffffffffffffffffffff168273ffffffffffffffffffffffffffffffffffffffff161415610f6d576040517f08c379a0000000000000000000000000000000000000000000000000000000008152600401610f6490613139565b60405180910390fd5b610f7a83838360016116f4565b8273ffffffffffffffffffffffffffffffffffffffff16610f9a826107e7565b73ffffffffffffffffffffffffffffffffffffffff1614610ff0576040517f08c379a0000000000000000000000000000000000000000000000000000000008152600401610fe7906130a7565b60405180910390fd5b6004600082815260200190815260200160002060006101000a81549073ffffffffffffffffffffffffffffffffffffffff02191690556001600360008573ffffffffffffffffffffffffffffffffffffffff1673ffffffffffffffffffffffffffffffffffffffff168152602001908152602001600020600082825403925050819055506001600360008473ffffffffffffffffffffffffffffffffffffffff1673ffffffffffffffffffffffffffffffffffffffff16815260200190815260200160002060008282540192505081905550816002600083815260200190815260200160002060006101000a81548173ffffffffffffffffffffffffffffffffffffffff021916908373ffffffffffffffffffffffffffffffffffffffff160217905550808273ffffffffffffffffffffffffffffffffffffffff168473ffffffffffffffffffffffffffffffffffffffff167fddf252ad1be2c89b69c2b068fc378daa952ba7f163c4a11628f55a4df523b3ef60405160405180910390a461117c8383836001611706565b505050565b60006002600083815260200190815260200160002060009054906101000a900473ffffffffffffffffffffffffffffffffffffffff169050919050565b6111c6610c44565b73ffffffffffffffffffffffffffffffffffffffff166111e461093a565b73ffffffffffffffffffffffffffffffffffffffff161461123a576040517f08c379a0000000000000000000000000000000000000000000000000000000008152600401611231906131a5565b60405180910390fd5b565b6000600b60009054906101000a900473ffffffffffffffffffffffffffffffffffffffff16905081600b60006101000a81548173ffffffffffffffffffffffffffffffffffffffff021916908373ffffffffffffffffffffffffffffffffffffffff1602179055508173ffffffffffffffffffffffffffffffffffffffff168173ffffffffffffffffffffffffffffffffffffffff167f8be0079c531659141344cd1fd0a4f28419497f9722a3daafe3b4186f6b6457e060405160405180910390a35050565b8173ffffffffffffffffffffffffffffffffffffffff168373ffffffffffffffffffffffffffffffffffffffff161415611371576040517f08c379a000000000000000000000000000000000000000000000000000000000815260040161136890613211565b60405180910390fd5b80600560008573ffffffffffffffffffffffffffffffffffffffff1673ffffffffffffffffffffffffffffffffffffffff16815260200190815260200160002060008473ffffffffffffffffffffffffffffffffffffffff1673ffffffffffffffffffffffffffffffffffffffff16815260200190815260200160002060006101000a81548160ff0219169083151502179055508173ffffffffffffffffffffffffffffffffffffffff168373ffffffffffffffffffffffffffffffffffffffff167f17307eab39ab6107e8899845ad3d59bd9653f200f220920489ca2b5937696c3183604051611462919061249d565b60405180910390a3505050565b61147a848484610e87565b6114868484848461170c565b6114c5576040517f08c379a00000000000000000000000000000000000000000000000000000000081526004016114bc906132a3565b60405180910390fd5b50505050565b60606114d682610bf9565b6000600a600084815260200190815260200160002080546114f690612ad8565b80601f016020809104026020016040519081016040528092919081815260200182805461152290612ad8565b801561156f5780601f106115445761010080835404028352916020019161156f565b820191906000526020600020905b81548152906001019060200180831161155257829003601f168201915b5050505050905060006115806118a3565b90506000815114156115965781925050506115d9565b6000825111156115cb5780826040516020016115b39291906132ff565b604051602081830303815290604052925050506115d9565b6115d4846118ba565b925050505b919050565b60007f780e9d63000000000000000000000000000000000000000000000000000000007bffffffffffffffffffffffffffffffffffffffffffffffffffffffff1916827bffffffffffffffffffffffffffffffffffffffffffffffffffffffff19161480611651575061165082611922565b5b9050919050565b60008073ffffffffffffffffffffffffffffffffffffffff1661167a83611181565b73ffffffffffffffffffffffffffffffffffffffff1614159050919050565b6116a38383611a04565b6116b0600084848461170c565b6116ef576040517f08c379a00000000000000000000000000000000000000000000000000000000081526004016116e6906132a3565b60405180910390fd5b505050565b61170084848484611c22565b50505050565b50505050565b600061172d8473ffffffffffffffffffffffffffffffffffffffff16611d82565b15611896578373ffffffffffffffffffffffffffffffffffffffff1663150b7a02611756610c44565b8786866040518563ffffffff1660e01b81526004016117789493929190613378565b602060405180830381600087803b15801561179257600080fd5b505af19250505080156117c357506040513d601f19601f820116820180604052508101906117c091906133d9565b60015b611846573d80600081146117f3576040519150601f19603f3d011682016040523d82523d6000602084013e6117f8565b606091505b5060008151141561183e576040517f08c379a0000000000000000000000000000000000000000000000000000000008152600401611835906132a3565b60405180910390fd5b805181602001fd5b63150b7a0260e01b7bffffffffffffffffffffffffffffffffffffffffffffffffffffffff1916817bffffffffffffffffffffffffffffffffffffffffffffffffffffffff19161491505061189b565b600190505b949350505050565b606060405180602001604052806000815250905090565b60606118c582610bf9565b60006118cf6118a3565b905060008151116118ef576040518060200160405280600081525061191a565b806118f984611da5565b60405160200161190a9291906132ff565b6040516020818303038152906040525b915050919050565b60007f80ac58cd000000000000000000000000000000000000000000000000000000007bffffffffffffffffffffffffffffffffffffffffffffffffffffffff1916827bffffffffffffffffffffffffffffffffffffffffffffffffffffffff191614806119ed57507f5b5e139f000000000000000000000000000000000000000000000000000000007bffffffffffffffffffffffffffffffffffffffffffffffffffffffff1916827bffffffffffffffffffffffffffffffffffffffffffffffffffffffff1916145b806119fd57506119fc82611e7d565b5b9050919050565b600073ffffffffffffffffffffffffffffffffffffffff168273ffffffffffffffffffffffffffffffffffffffff161415611a74576040517f08c379a0000000000000000000000000000000000000000000000000000000008152600401611a6b90613452565b60405180910390fd5b611a7d81611658565b15611abd576040517f08c379a0000000000000000000000000000000000000000000000000000000008152600401611ab4906134be565b60405180910390fd5b611acb6000838360016116f4565b611ad481611658565b15611b14576040517f08c379a0000000000000000000000000000000000000000000000000000000008152600401611b0b906134be565b60405180910390fd5b6001600360008473ffffffffffffffffffffffffffffffffffffffff1673ffffffffffffffffffffffffffffffffffffffff16815260200190815260200160002060008282540192505081905550816002600083815260200190815260200160002060006101000a81548173ffffffffffffffffffffffffffffffffffffffff021916908373ffffffffffffffffffffffffffffffffffffffff160217905550808273ffffffffffffffffffffffffffffffffffffffff16600073ffffffffffffffffffffffffffffffffffffffff167fddf252ad1be2c89b69c2b068fc378daa952ba7f163c4a11628f55a4df523b3ef60405160405180910390a4611c1e600083836001611706565b5050565b611c2e84848484611ee7565b6001811115611c72576040517f08c379a0000000000000000000000000000000000000000000000000000000008152600401611c6990613550565b60405180910390fd5b6000829050600073ffffffffffffffffffffffffffffffffffffffff168573ffffffffffffffffffffffffffffffffffffffff161415611cba57611cb581611eed565b611cf9565b8373ffffffffffffffffffffffffffffffffffffffff168573ffffffffffffffffffffffffffffffffffffffff1614611cf857611cf78582611f36565b5b5b600073ffffffffffffffffffffffffffffffffffffffff168473ffffffffffffffffffffffffffffffffffffffff161415611d3c57611d37816120a3565b611d7b565b8473ffffffffffffffffffffffffffffffffffffffff168473ffffffffffffffffffffffffffffffffffffffff1614611d7a57611d798482612174565b5b5b5050505050565b6000808273ffffffffffffffffffffffffffffffffffffffff163b119050919050565b606060006001611db4846121f3565b01905060008167ffffffffffffffff811115611dd357611dd26126a8565b5b6040519080825280601f01601f191660200182016040528015611e055781602001600182028036833780820191505090505b509050600082602001820190505b600115611e72578080600190039150507f3031323334353637383961626364656600000000000000000000000000000000600a86061a8153600a8581611e5c57611e5b613570565b5b0494506000851415611e6d57611e72565b611e13565b819350505050919050565b60007f01ffc9a7000000000000000000000000000000000000000000000000000000007bffffffffffffffffffffffffffffffffffffffffffffffffffffffff1916827bffffffffffffffffffffffffffffffffffffffffffffffffffffffff1916149050919050565b50505050565b6008805490506009600083815260200190815260200160002081905550600881908060018154018082558091505060019003906000526020600020016000909190919091505550565b60006001611f438461086e565b611f4d91906135ce565b9050600060076000848152602001908152602001600020549050818114612032576000600660008673ffffffffffffffffffffffffffffffffffffffff1673ffffffffffffffffffffffffffffffffffffffff168152602001908152602001600020600084815260200190815260200160002054905080600660008773ffffffffffffffffffffffffffffffffffffffff1673ffffffffffffffffffffffffffffffffffffffff168152602001908152602001600020600084815260200190815260200160002081905550816007600083815260200190815260200160002081905550505b6007600084815260200190815260200160002060009055600660008573ffffffffffffffffffffffffffffffffffffffff1673ffffffffffffffffffffffffffffffffffffffff16815260200190815260200160002060008381526020019081526020016000206000905550505050565b600060016008805490506120b791906135ce565b90506000600960008481526020019081526020016000205490506000600883815481106120e7576120e6612de4565b5b90600052602060002001549050806008838154811061210957612108612de4565b5b90600052602060002001819055508160096000838152602001908152602001600020819055506009600085815260200190815260200160002060009055600880548061215857612157613602565b5b6001900381819060005260206000200160009055905550505050565b600061217f8361086e565b905081600660008573ffffffffffffffffffffffffffffffffffffffff1673ffffffffffffffffffffffffffffffffffffffff168152602001908152602001600020600083815260200190815260200160002081905550806007600084815260200190815260200160002081905550505050565b600080600090507a184f03e93ff9f4daa797ed6e38ed64bf6a1f0100000000000000008310612251577a184f03e93ff9f4daa797ed6e38ed64bf6a1f010000000000000000838161224757612246613570565b5b0492506040810190505b6d04ee2d6d415b85acef8100000000831061228e576d04ee2d6d415b85acef8100000000838161228457612283613570565b5b0492506020810190505b662386f26fc1000083106122bd57662386f26fc1000083816122b3576122b2613570565b5b0492506010810190505b6305f5e10083106122e6576305f5e10083816122dc576122db613570565b5b0492506008810190505b612710831061230b57612710838161230157612300613570565b5b0492506004810190505b6064831061232e576064838161232457612323613570565b5b0492506002810190505b600a831061233d576001810190505b80915050919050565b82805461235290612ad8565b90600052602060002090601f01602090048101928261237457600085556123bb565b82601f1061238d57805160ff19168380011785556123bb565b828001600101855582156123bb579182015b828111156123ba57825182559160200191906001019061239f565b5b5090506123c891906123cc565b5090565b5b808211156123e55760008160009055506001016123cd565b5090565b6000604051905090565b600080fd5b600080fd5b60007fffffffff0000000000000000000000000000000000000000000000000000000082169050919050565b612432816123fd565b811461243d57600080fd5b50565b60008135905061244f81612429565b92915050565b60006020828403121561246b5761246a6123f3565b5b600061247984828501612440565b91505092915050565b60008115159050919050565b61249781612482565b82525050565b60006020820190506124b2600083018461248e565b92915050565b600081519050919050565b600082825260208201905092915050565b60005b838110156124f25780820151818401526020810190506124d7565b83811115612501576000848401525b50505050565b6000601f19601f8301169050919050565b6000612523826124b8565b61252d81856124c3565b935061253d8185602086016124d4565b61254681612507565b840191505092915050565b6000602082019050818103600083015261256b8184612518565b905092915050565b6000819050919050565b61258681612573565b811461259157600080fd5b50565b6000813590506125a38161257d565b92915050565b6000602082840312156125bf576125be6123f3565b5b60006125cd84828501612594565b91505092915050565b600073ffffffffffffffffffffffffffffffffffffffff82169050919050565b6000612601826125d6565b9050919050565b612611816125f6565b82525050565b600060208201905061262c6000830184612608565b92915050565b61263b816125f6565b811461264657600080fd5b50565b60008135905061265881612632565b92915050565b60008060408385031215612675576126746123f3565b5b600061268385828601612649565b925050602061269485828601612594565b9150509250929050565b600080fd5b600080fd5b7f4e487b7100000000000000000000000000000000000000000000000000000000600052604160045260246000fd5b6126e082612507565b810181811067ffffffffffffffff821117156126ff576126fe6126a8565b5b80604052505050565b60006127126123e9565b905061271e82826126d7565b919050565b600067ffffffffffffffff82111561273e5761273d6126a8565b5b61274782612507565b9050602081019050919050565b82818337600083830152505050565b600061277661277184612723565b612708565b905082815260208101848484011115612792576127916126a3565b5b61279d848285612754565b509392505050565b600082601f8301126127ba576127b961269e565b5b81356127ca848260208601612763565b91505092915050565b600080604083850312156127ea576127e96123f3565b5b60006127f885828601612649565b925050602083013567ffffffffffffffff811115612819576128186123f8565b5b612825858286016127a5565b9150509250929050565b61283881612573565b82525050565b6000602082019050612853600083018461282f565b92915050565b600080600060608486031215612872576128716123f3565b5b600061288086828701612649565b935050602061289186828701612649565b92505060406128a286828701612594565b9150509250925092565b6000602082840312156128c2576128c16123f3565b5b60006128d084828501612649565b91505092915050565b6128e281612482565b81146128ed57600080fd5b50565b6000813590506128ff816128d9565b92915050565b6000806040838503121561291c5761291b6123f3565b5b600061292a85828601612649565b925050602061293b858286016128f0565b9150509250929050565b600067ffffffffffffffff8211156129605761295f6126a8565b5b61296982612507565b9050602081019050919050565b600061298961298484612945565b612708565b9050828152602081018484840111156129a5576129a46126a3565b5b6129b0848285612754565b509392505050565b600082601f8301126129cd576129cc61269e565b5b81356129dd848260208601612976565b91505092915050565b60008060008060808587031215612a00576129ff6123f3565b5b6000612a0e87828801612649565b9450506020612a1f87828801612649565b9350506040612a3087828801612594565b925050606085013567ffffffffffffffff811115612a5157612a506123f8565b5b612a5d878288016129b8565b91505092959194509250565b60008060408385031215612a8057612a7f6123f3565b5b6000612a8e85828601612649565b9250506020612a9f85828601612649565b9150509250929050565b7f4e487b7100000000000000000000000000000000000000000000000000000000600052602260045260246000fd5b60006002820490506001821680612af057607f821691505b60208210811415612b0457612b03612aa9565b5b50919050565b7f4552433732313a20617070726f76616c20746f2063757272656e74206f776e6560008201527f7200000000000000000000000000000000000000000000000000000000000000602082015250565b6000612b666021836124c3565b9150612b7182612b0a565b604082019050919050565b60006020820190508181036000830152612b9581612b59565b9050919050565b7f4552433732313a20617070726f76652063616c6c6572206973206e6f7420746f60008201527f6b656e206f776e6572206f7220617070726f76656420666f7220616c6c000000602082015250565b6000612bf8603d836124c3565b9150612c0382612b9c565b604082019050919050565b60006020820190508181036000830152612c2781612beb565b9050919050565b7f4552433732313a2063616c6c6572206973206e6f7420746f6b656e206f776e6560008201527f72206f7220617070726f76656400000000000000000000000000000000000000602082015250565b6000612c8a602d836124c3565b9150612c9582612c2e565b604082019050919050565b60006020820190508181036000830152612cb981612c7d565b9050919050565b7f455243373231456e756d657261626c653a206f776e657220696e646578206f7560008201527f74206f6620626f756e6473000000000000000000000000000000000000000000602082015250565b6000612d1c602b836124c3565b9150612d2782612cc0565b604082019050919050565b60006020820190508181036000830152612d4b81612d0f565b9050919050565b7f455243373231456e756d657261626c653a20676c6f62616c20696e646578206f60008201527f7574206f6620626f756e64730000000000000000000000000000000000000000602082015250565b6000612dae602c836124c3565b9150612db982612d52565b604082019050919050565b60006020820190508181036000830152612ddd81612da1565b9050919050565b7f4e487b7100000000000000000000000000000000000000000000000000000000600052603260045260246000fd5b7f4552433732313a20696e76616c696420746f6b656e2049440000000000000000600082015250565b6000612e496018836124c3565b9150612e5482612e13565b602082019050919050565b60006020820190508181036000830152612e7881612e3c565b9050919050565b7f4552433732313a2061646472657373207a65726f206973206e6f74206120766160008201527f6c6964206f776e65720000000000000000000000000000000000000000000000602082015250565b6000612edb6029836124c3565b9150612ee682612e7f565b604082019050919050565b60006020820190508181036000830152612f0a81612ece565b9050919050565b7f4f776e61626c653a206e6577206f776e657220697320746865207a65726f206160008201527f6464726573730000000000000000000000000000000000000000000000000000602082015250565b6000612f6d6026836124c3565b9150612f7882612f11565b604082019050919050565b60006020820190508181036000830152612f9c81612f60565b9050919050565b7f45524337323155524953746f726167653a2055524920736574206f66206e6f6e60008201527f6578697374656e7420746f6b656e000000000000000000000000000000000000602082015250565b6000612fff602e836124c3565b915061300a82612fa3565b604082019050919050565b6000602082019050818103600083015261302e81612ff2565b9050919050565b7f4552433732313a207472616e736665722066726f6d20696e636f72726563742060008201527f6f776e6572000000000000000000000000000000000000000000000000000000602082015250565b60006130916025836124c3565b915061309c82613035565b604082019050919050565b600060208201905081810360008301526130c081613084565b9050919050565b7f4552433732313a207472616e7366657220746f20746865207a65726f2061646460008201527f7265737300000000000000000000000000000000000000000000000000000000602082015250565b60006131236024836124c3565b915061312e826130c7565b604082019050919050565b6000602082019050818103600083015261315281613116565b9050919050565b7f4f776e61626c653a2063616c6c6572206973206e6f7420746865206f776e6572600082015250565b600061318f6020836124c3565b915061319a82613159565b602082019050919050565b600060208201905081810360008301526131be81613182565b9050919050565b7f4552433732313a20617070726f766520746f2063616c6c657200000000000000600082015250565b60006131fb6019836124c3565b9150613206826131c5565b602082019050919050565b6000602082019050818103600083015261322a816131ee565b9050919050565b7f4552433732313a207472616e7366657220746f206e6f6e20455243373231526560008201527f63656976657220696d706c656d656e7465720000000000000000000000000000602082015250565b600061328d6032836124c3565b915061329882613231565b604082019050919050565b600060208201905081810360008301526132bc81613280565b9050919050565b600081905092915050565b60006132d9826124b8565b6132e381856132c3565b93506132f38185602086016124d4565b80840191505092915050565b600061330b82856132ce565b915061331782846132ce565b91508190509392505050565b600081519050919050565b600082825260208201905092915050565b600061334a82613323565b613354818561332e565b93506133648185602086016124d4565b61336d81612507565b840191505092915050565b600060808201905061338d6000830187612608565b61339a6020830186612608565b6133a7604083018561282f565b81810360608301526133b9818461333f565b905095945050505050565b6000815190506133d381612429565b92915050565b6000602082840312156133ef576133ee6123f3565b5b60006133fd848285016133c4565b91505092915050565b7f4552433732313a206d696e7420746f20746865207a65726f2061646472657373600082015250565b600061343c6020836124c3565b915061344782613406565b602082019050919050565b6000602082019050818103600083015261346b8161342f565b9050919050565b7f4552433732313a20746f6b656e20616c7265616479206d696e74656400000000600082015250565b60006134a8601c836124c3565b91506134b382613472565b602082019050919050565b600060208201905081810360008301526134d78161349b565b9050919050565b7f455243373231456e756d657261626c653a20636f6e736563757469766520747260008201527f616e7366657273206e6f7420737570706f727465640000000000000000000000602082015250565b600061353a6035836124c3565b9150613545826134de565b604082019050919050565b600060208201905081810360008301526135698161352d565b9050919050565b7f4e487b7100000000000000000000000000000000000000000000000000000000600052601260045260246000fd5b7f4e487b7100000000000000000000000000000000000000000000000000000000600052601160045260246000fd5b60006135d982612573565b91506135e483612573565b9250828210156135f7576135f661359f565b5b828203905092915050565b7f4e487b7100000000000000000000000000000000000000000000000000000000600052603160045260246000fdfea264697066735822122045741b520ed8b35ee58ac55a28f27b7dceb9268c68b4839690bb77e0cbdcf32664736f6c63430008090033",
  "linkReferences": {},
  "deployedLinkReferences": {}
}